{
  "contractName": "TokenComrade",
  "abi": [
    {
      "inputs": [],
      "stateMutability": "nonpayable",
      "type": "constructor"
    },
    {
      "inputs": [
        {
          "internalType": "uint256",
          "name": "_supply",
          "type": "uint256"
        },
        {
          "internalType": "string",
          "name": "_name",
          "type": "string"
        },
        {
          "internalType": "uint256",
          "name": "_price",
          "type": "uint256"
        }
      ],
      "name": "createEvent",
      "outputs": [
        {
          "internalType": "uint256",
          "name": "eventID",
          "type": "uint256"
        }
      ],
      "stateMutability": "payable",
      "type": "function",
      "payable": true
    },
    {
      "inputs": [
        {
          "internalType": "uint256",
          "name": "eventID",
          "type": "uint256"
        },
        {
          "internalType": "uint256",
          "name": "_quantity",
          "type": "uint256"
        }
      ],
      "name": "mint",
      "outputs": [],
      "stateMutability": "payable",
      "type": "function",
      "payable": true
    },
    {
      "inputs": [
        {
          "internalType": "uint256",
          "name": "eventID",
          "type": "uint256"
        },
        {
          "internalType": "address",
          "name": "_holderID",
          "type": "address"
        },
        {
          "internalType": "uint256",
          "name": "_quantity",
          "type": "uint256"
        }
      ],
      "name": "scan",
      "outputs": [],
      "stateMutability": "nonpayable",
      "type": "function"
    },
    {
      "inputs": [
        {
          "internalType": "address",
          "name": "_scanner",
          "type": "address"
        },
        {
          "internalType": "uint256",
          "name": "eventID",
          "type": "uint256"
        }
      ],
      "name": "approveScanner",
      "outputs": [],
      "stateMutability": "nonpayable",
      "type": "function"
    },
    {
      "inputs": [
        {
          "internalType": "address",
          "name": "_scanner",
          "type": "address"
        },
        {
          "internalType": "uint256",
          "name": "eventID",
          "type": "uint256"
        }
      ],
      "name": "removeScanner",
      "outputs": [],
      "stateMutability": "nonpayable",
      "type": "function"
    },
    {
      "inputs": [
        {
          "internalType": "uint256",
          "name": "eventID",
          "type": "uint256"
        }
      ],
      "name": "pullFunds",
      "outputs": [],
      "stateMutability": "nonpayable",
      "type": "function"
    }
  ],
  "bytecode": "0x608060405234801561001057600080fd5b50336000806101000a81548173ffffffffffffffffffffffffffffffffffffffff021916908373ffffffffffffffffffffffffffffffffffffffff1602179055506110b7806100606000396000f3fe6080604052600436106100555760003560e01c80631b2ef1ca1461005a57806383372b5b14610076578063882670b1146100a65780639845f3bc146100cf578063a5dc7b0c146100f8578063ec8d877714610121575b600080fd5b610074600480360381019061006f9190610934565b61014a565b005b610090600480360381019061008b9190610aba565b6102ce565b60405161009d9190610b38565b60405180910390f35b3480156100b257600080fd5b506100cd60048036038101906100c89190610bb1565b6103b9565b005b3480156100db57600080fd5b506100f660048036038101906100f19190610bb1565b61048b565b005b34801561010457600080fd5b5061011f600480360381019061011a9190610bf1565b61055d565b005b34801561012d57600080fd5b5061014860048036038101906101439190610c44565b6106d8565b005b600060046000848152602001908152602001600020905080600401543410156101a8576040517f08c379a000000000000000000000000000000000000000000000000000000000815260040161019f90610cce565b60405180910390fd5b81816003015410156101ef576040517f08c379a00000000000000000000000000000000000000000000000000000000081526004016101e690610d3a565b60405180910390fd5b60003390506000600360008373ffffffffffffffffffffffffffffffffffffffff1673ffffffffffffffffffffffffffffffffffffffff16815260200190815260200160002090508383600301600082825461024b9190610d89565b92505081905550838160010160008282546102669190610dbd565b92505081905550338160000160006101000a81548173ffffffffffffffffffffffffffffffffffffffff021916908373ffffffffffffffffffffffffffffffffffffffff1602179055506000836003015414156102c7576102c68561080f565b5b5050505050565b6000600160008154809291906102e390610e13565b91905055905060006004600083815260200190815260200160002090508481600201819055508481600301819055508381600101908051906020019061032a929190610847565b50670de0b6b3a76400008361033f9190610e5c565b8160040181905550338160000160006101000a81548173ffffffffffffffffffffffffffffffffffffffff021916908373ffffffffffffffffffffffffffffffffffffffff16021790555060008160050160006101000a81548160ff02191690831515021790555060008160060181905550509392505050565b60006004600083815260200190815260200160002090503373ffffffffffffffffffffffffffffffffffffffff168160000160009054906101000a900473ffffffffffffffffffffffffffffffffffffffff1673ffffffffffffffffffffffffffffffffffffffff161461042c57600080fd5b60018160070160008573ffffffffffffffffffffffffffffffffffffffff1673ffffffffffffffffffffffffffffffffffffffff16815260200190815260200160002060006101000a81548160ff021916908315150217905550505050565b60006004600083815260200190815260200160002090503373ffffffffffffffffffffffffffffffffffffffff168160000160009054906101000a900473ffffffffffffffffffffffffffffffffffffffff1673ffffffffffffffffffffffffffffffffffffffff16146104fe57600080fd5b60008160070160008573ffffffffffffffffffffffffffffffffffffffff1673ffffffffffffffffffffffffffffffffffffffff16815260200190815260200160002060006101000a81548160ff021916908315150217905550505050565b60006004600085815260200190815260200160002090506000600360008573ffffffffffffffffffffffffffffffffffffffff1673ffffffffffffffffffffffffffffffffffffffff16815260200190815260200160002090508160070160003373ffffffffffffffffffffffffffffffffffffffff1673ffffffffffffffffffffffffffffffffffffffff16815260200190815260200160002060009054906101000a900460ff16610645576040517f08c379a000000000000000000000000000000000000000000000000000000000815260040161063c90610f02565b60405180910390fd5b828160010154101561068c576040517f08c379a000000000000000000000000000000000000000000000000000000000815260040161068390610f6e565b60405180910390fd5b828160010160008282546106a09190610d89565b925050819055508160040154836106b79190610e5c565b8260060160008282546106ca9190610dbd565b925050819055505050505050565b60006004600083815260200190815260200160002090508060000160009054906101000a900473ffffffffffffffffffffffffffffffffffffffff1673ffffffffffffffffffffffffffffffffffffffff163373ffffffffffffffffffffffffffffffffffffffff1614610781576040517f08c379a000000000000000000000000000000000000000000000000000000000815260040161077890611000565b60405180910390fd5b600081600601541161079257600080fd5b8060000160009054906101000a900473ffffffffffffffffffffffffffffffffffffffff1673ffffffffffffffffffffffffffffffffffffffff166108fc82600601549081150290604051600060405180830381858888f19350505050158015610800573d6000803e3d6000fd5b50600081600601819055505050565b600060046000838152602001908152602001600020905060018160050160006101000a81548160ff0219169083151502179055505050565b8280546108539061104f565b90600052602060002090601f01602090048101928261087557600085556108bc565b82601f1061088e57805160ff19168380011785556108bc565b828001600101855582156108bc579182015b828111156108bb5782518255916020019190600101906108a0565b5b5090506108c991906108cd565b5090565b5b808211156108e65760008160009055506001016108ce565b5090565b6000604051905090565b600080fd5b600080fd5b6000819050919050565b610911816108fe565b811461091c57600080fd5b50565b60008135905061092e81610908565b92915050565b6000806040838503121561094b5761094a6108f4565b5b60006109598582860161091f565b925050602061096a8582860161091f565b9150509250929050565b600080fd5b600080fd5b6000601f19601f8301169050919050565b7f4e487b7100000000000000000000000000000000000000000000000000000000600052604160045260246000fd5b6109c78261097e565b810181811067ffffffffffffffff821117156109e6576109e561098f565b5b80604052505050565b60006109f96108ea565b9050610a0582826109be565b919050565b600067ffffffffffffffff821115610a2557610a2461098f565b5b610a2e8261097e565b9050602081019050919050565b82818337600083830152505050565b6000610a5d610a5884610a0a565b6109ef565b905082815260208101848484011115610a7957610a78610979565b5b610a84848285610a3b565b509392505050565b600082601f830112610aa157610aa0610974565b5b8135610ab1848260208601610a4a565b91505092915050565b600080600060608486031215610ad357610ad26108f4565b5b6000610ae18682870161091f565b935050602084013567ffffffffffffffff811115610b0257610b016108f9565b5b610b0e86828701610a8c565b9250506040610b1f8682870161091f565b9150509250925092565b610b32816108fe565b82525050565b6000602082019050610b4d6000830184610b29565b92915050565b600073ffffffffffffffffffffffffffffffffffffffff82169050919050565b6000610b7e82610b53565b9050919050565b610b8e81610b73565b8114610b9957600080fd5b50565b600081359050610bab81610b85565b92915050565b60008060408385031215610bc857610bc76108f4565b5b6000610bd685828601610b9c565b9250506020610be78582860161091f565b9150509250929050565b600080600060608486031215610c0a57610c096108f4565b5b6000610c188682870161091f565b9350506020610c2986828701610b9c565b9250506040610c3a8682870161091f565b9150509250925092565b600060208284031215610c5a57610c596108f4565b5b6000610c688482850161091f565b91505092915050565b600082825260208201905092915050565b7f696e636f72726563742076616c75650000000000000000000000000000000000600082015250565b6000610cb8600f83610c71565b9150610cc382610c82565b602082019050919050565b60006020820190508181036000830152610ce781610cab565b9050919050565b7f4e6f7420456e6f75676820537570706c79000000000000000000000000000000600082015250565b6000610d24601183610c71565b9150610d2f82610cee565b602082019050919050565b60006020820190508181036000830152610d5381610d17565b9050919050565b7f4e487b7100000000000000000000000000000000000000000000000000000000600052601160045260246000fd5b6000610d94826108fe565b9150610d9f836108fe565b925082821015610db257610db1610d5a565b5b828203905092915050565b6000610dc8826108fe565b9150610dd3836108fe565b9250827fffffffffffffffffffffffffffffffffffffffffffffffffffffffffffffffff03821115610e0857610e07610d5a565b5b828201905092915050565b6000610e1e826108fe565b91507fffffffffffffffffffffffffffffffffffffffffffffffffffffffffffffffff821415610e5157610e50610d5a565b5b600182019050919050565b6000610e67826108fe565b9150610e72836108fe565b9250817fffffffffffffffffffffffffffffffffffffffffffffffffffffffffffffffff0483118215151615610eab57610eaa610d5a565b5b828202905092915050565b7f596f7520617265206e6f7420616e20617070726f766564207363616e6e657200600082015250565b6000610eec601f83610c71565b9150610ef782610eb6565b602082019050919050565b60006020820190508181036000830152610f1b81610edf565b9050919050565b7f4e6f7420656e6f75676820746f6b656e73000000000000000000000000000000600082015250565b6000610f58601183610c71565b9150610f6382610f22565b602082019050919050565b60006020820190508181036000830152610f8781610f4b565b9050919050565b7f4f6e6c7920746865206f7267616e697a65722063616e2052656465656d20667560008201527f6e64730000000000000000000000000000000000000000000000000000000000602082015250565b6000610fea602383610c71565b9150610ff582610f8e565b604082019050919050565b6000602082019050818103600083015261101981610fdd565b9050919050565b7f4e487b7100000000000000000000000000000000000000000000000000000000600052602260045260246000fd5b6000600282049050600182168061106757607f821691505b6020821081141561107b5761107a611020565b5b5091905056fea2646970667358221220ecb8a9543f83434857b39236c6f03081237a2ad1cd19aab0cae2b7177e83f52364736f6c634300080b0033",
  "immutableReferences": {},
  "source": "// SPDX-License-Identifier: GPL-3.0\r\npragma solidity ^0.8.0;\r\n\r\ncontract TokenComrade{\r\n\r\n    // GLobal Variables\r\n    address payable owner;\r\n    uint numEvents;\r\n    bool fundPulled;\r\n\r\n    struct Holder {\r\n        address wallet;\r\n        uint inventory;\r\n    }\r\n        \r\n    struct Event{\r\n        address payable organizer;\r\n        string name;\r\n        uint initialSupply;\r\n        uint supply;\r\n        uint price; //wei\r\n        bool soldOut;\r\n        uint256 redeemableBalance;\r\n        mapping(address => bool) scanners; // stores boolean to check whether an address is an approved scanner.\r\n    }\r\n\r\n    mapping(address => Holder) holders;\r\n    mapping (uint => Event) events;\r\n\r\n    constructor(){\r\n        owner = payable(msg.sender);\r\n    }\r\n    \r\n    \r\n    function createEvent(uint _supply, string memory _name, uint _price) external payable returns (uint eventID){\r\n        eventID = numEvents++;\r\n        Event storage e = events[eventID];\r\n        e.initialSupply = _supply;\r\n        e.supply = _supply;\r\n        e.name = _name;\r\n        e.price = _price*10**18;\r\n        e.organizer = payable(msg.sender);\r\n        e.soldOut = false;\r\n        e.redeemableBalance = 0;\r\n        return (eventID);\r\n    }\r\n    \r\n    function mint(uint eventID, uint _quantity) external payable{\r\n        Event storage e = events[eventID];\r\n        require(msg.value >= e.price, \"incorrect value\");\r\n        require(e.supply >= _quantity, \"Not Enough Supply\");\r\n        address holderID = msg.sender;\r\n        Holder storage h = holders[holderID];\r\n        e.supply -= _quantity;\r\n        h.inventory += _quantity;\r\n        h.wallet = msg.sender;\r\n        if(e.supply == 0){\r\n            sellOut(eventID);\r\n        }\r\n    }\r\n\r\n    function scan(uint eventID, address _holderID, uint _quantity) external {\r\n        Event storage e = events[eventID];\r\n        Holder storage h = holders[_holderID];\r\n        require(e.scanners[msg.sender], \"You are not an approved scanner\");\r\n        require(h.inventory >= _quantity, \"Not enough tokens\");\r\n        h.inventory -= _quantity;\r\n        e.redeemableBalance += (_quantity * e.price);\r\n    }\r\n\r\n    function approveScanner(address _scanner, uint eventID) public{\r\n        Event storage e = events[eventID];\r\n        require(e.organizer == msg.sender);\r\n        e.scanners[_scanner] = true;\r\n    }\r\n\r\n    function removeScanner(address _scanner, uint eventID) public{\r\n        Event storage e = events[eventID];\r\n        require(e.organizer == msg.sender);\r\n        e.scanners[_scanner] = false;\r\n    }\r\n\r\n    function sellOut(uint eventID) internal {\r\n        Event storage e = events[eventID];\r\n        e.soldOut = true;\r\n    }\r\n\r\n    function pullFunds(uint eventID) external {\r\n        Event storage e = events[eventID];\r\n        require(msg.sender == e.organizer, \"Only the organizer can Redeem funds\");\r\n        require(e.redeemableBalance>0);\r\n        e.organizer.transfer(e.redeemableBalance);\r\n        e.redeemableBalance = 0;\r\n    }\r\n\r\n}",
  "sourcePath": "D:\\Workspace\\token-comrade\\contracts\\TokenComrade.sol",
  "compiler": {
    "name": "solc",
    "version": "0.8.11+commit.d7f03943.Emscripten.clang"
  },
  "schemaVersion": "3.4.4",
  "updatedAt": "2022-02-06T18:25:45.921Z",
  "networkType": "ethereum",
  "devdoc": {
    "kind": "dev",
    "methods": {},
    "version": 1
  },
  "userdoc": {
    "kind": "user",
    "methods": {},
    "version": 1
  }
}